S018000046696E616C5F536C6176655F436F64652E73726563EE
S113000096C000009EC000009CC000009AC0000082
S113001098C0000096C0000094C0000092C0000088
S113002090C000008EC000008CC000008AC0000098
S113003088C0000086C0000084C0000082C00000A8
S113004080C000007EC000007CC000007AC00000B8
S113005078C0000076C0000074C0000072C00000C8
S113006070C000006EC000006CC000006AC00000D8
S113007068C0000066C0000064C0000062C00000E8
S113008060C000005EC000005CC000005AC00000F8
S113009058C0000056C0000054C0000052C0000008
S11300A050C000004EC000004CC000004AC0000018
S11300B048C0000046C0000044C0000042C0000028
S11300C040C000003EC000003CC000003AC0000038
S11300D038C0000036C0000034C0000032C0000048
S11300E030C00000080219022A023B024C02FB0144
S11300F0FB01FB01FB01FB01FB01FB01FB01FB011C
S1130100FB01FB015D026102650269026D02FB01F4
S1130110FB01FB01FB01FB01FB01FB01FB01FB01FB
S1130120FB01FB017102750279027D028102112437
S11301301FBECFEFD1E2DEBFCDBF00E00CBF4AD17E
S1130140F9C15ECF823419F118F4813439F008957D
S11301508334B1F1843409F44CC00895413059F426
S113016021B181E090E002C0880F991F6A95E2F7FF
S1130170822B81B9089521B181E090E002C0880FFB
S1130180991F6A95E2F78095822381B908954130D9
S113019059F424B181E090E002C0880F991F6A9558
S11301A0E2F7822B84B9089524B181E090E002C083
S11301B0880F991F6A95E2F78095822384B9089580
S11301C0413059F427B181E090E002C0880F991FB3
S11301D06A95E2F7822B87B9089527B181E090E010
S11301E002C0880F991F6A95E2F78095822387B928
S11301F00895413059F42AB181E090E002C0880F9B
S1130200991F6A95E2F7822B8AB908952AB181E091
S113021090E002C0880F991F6A95E2F780958223C7
S11302208AB90895823419F118F4813439F00895A3
S11302308334B1F1843409F44CC00895413059F445
S113024022B181E090E002C0880F991F6A95E2F71D
S1130250822B82B9089522B181E090E002C0880F18
S1130260991F6A95E2F78095822382B908954130F7
S113027059F425B181E090E002C0880F991F6A9576
S1130280E2F7822B85B9089525B181E090E002C0A0
S1130290880F991F6A95E2F78095822385B908959E
S11302A0413059F428B181E090E002C0880F991FD1
S11302B06A95E2F7822B88B9089528B181E090E02D
S11302C002C0880F991F6A95E2F78095822388B946
S11302D00895413059F42BB181E090E002C0880FB9
S11302E0991F6A95E2F7822B8BB908952BB181E0AF
S11302F090E002C0880F991F6A95E2F780958223E7
S11303008BB908958234E9F018F4813431F055C082
S1130310833459F18434E9F150C040B181E090E074
S11303209C01062E02C0220F331F0A94E2F7842F89
S113033090E08223932302C0959587956A95E2F70E
S1130340089543B181E090E09C01062E02C0220F83
S1130350331F0A94E2F7842F90E08223932302C090
S1130360959587956A95E2F7089546B181E090E006
S11303709C01062E02C0220F331F0A94E2F7842F39
S113038090E08223932302C0959587956A95E2F7BE
S1130390089549B181E090E09C01062E02C0220F2D
S11303A0331F0A94E2F7842F90E08223932302C040
S11303B0959587956A95E2F7089580E0089541E060
S11303C0C1CE089541E02ECF089540E02BCF08958B
S11303D099CF08959AD060E084E4F1DF64E082E488
S11303E0EEDF65E082E4EBDF66E082E4E8DF67E00D
S11303F082E4E5DFCFEF8FEF8FD090E0FC017197BF
S1130400E532F105C0F78827EE58FF4F8F4F8AC0B9
S113041064E082E4DDDF882331F064E082E4D8DF45
S1130420813021F402C0C0E001C0C1E08C2F74D03F
S1130430E2CF65E082E4CCDF882331F065E082E43A
S1130440C7DF813021F402C0C0E001C0C1E08C2FBD
S113045063D0D1CF66E082E4BBDF882331F066E06D
S113046082E4B6DF813021F402C0C0E001C0C1E003
S11304708C2F52D0C0CF67E082E4AADF882331F00A
S113048067E082E4A5DF813021F402C0C0E001C04E
S1130490C1E08C2F41D0AFCF60E084E499DF8823A2
S11304A031F060E084E494DF813021F402C0C0E0E4
S11304B001C0C1E08C2F30D09ECF64E082E482DFA3
S11304C09ACF65E082E47EDF96CF66E082E47ADF4D
S11304D092CF67E082E476DF8ECF60E084E472DF5F
S11304E08ACF64E082E471DF86CF65E082E46DDF69
S11304F082CF66E082E469DF7ECF67E082E465DF75
S11305007ACF60E084E461DF76CF84B1886084B917
S11305108CB580648CBD08958EBD0DB407FEFDCFEF
S11305208EB50895EE0FFF1F881F8BBF0790F691BD
S10B0530E02D1994F894FFCFAB
S9030000FC
