:1000000078C0000096C0000094C0000092C00000BC
:1000100090C000008EC000008CC000008AC00000AC
:1000200088C0000086C0000084C0000082C00000BC
:1000300080C000007EC000007CC000007AC00000CC
:1000400078C0000076C0000074C0000072C00000DC
:1000500070C000000C943F086CC000006AC0000033
:1000600068C0000066C0000064C0000062C00000FC
:1000700060C000005EC000005CC000005AC000000C
:1000800058C0000056C0000054C0000052C000001C
:1000900050C000004EC000004CC000004AC000002C
:1000A00048C0000046C0000044C0000042C000003C
:1000B00040C000003EC000003CC000003AC000004C
:1000C00038C0000036C0000034C0000032C000005C
:1000D00030C000002EC000002CC000002AC000006C
:1000E00028C000007807D40715081B082108270836
:1000F0002F0811241FBECFEFD1E2DEBFCDBF00E03D
:100100000CBF13E0A0E0B2E0E8ECF2E100E00BBFCE
:1001100002C007900D92A43DB107D9F723E0A4EDEA
:10012000B3E001C01D92A73DB207E1F750D40C9493
:10013000620966CF833409F442C028F4813469F03F
:10014000823421F10895863409F488C08B3409F48F
:1001500068C0843409F09AC04BC0413059F421B1D1
:1001600081E090E002C0880F991F6A95E2F7822B28
:1001700081B9089521B181E090E002C0880F991FF4
:100180006A95E2F78095822381B90895413059F448
:1001900024B181E090E002C0880F991F6A95E2F7D0
:1001A000822B84B9089524B181E090E002C0880FC9
:1001B000991F6A95E2F78095822384B908954130AA
:1001C00059F427B181E090E002C0880F991F6A9529
:1001D000E2F7822B87B9089527B181E090E002C051
:1001E000880F991F6A95E2F78095822387B9089551
:1001F000413059F42AB181E090E002C0880F991F84
:100200006A95E2F7822B8AB908952AB181E090E0DD
:1002100002C0880F991F6A95E2F7809582238AB9F8
:100220000895413069F4E7E0F1E0208181E090E059
:1002300002C0880F991F6A95E2F7822B8083089588
:10024000E7E0F1E0208181E090E002C0880F991F93
:100250006A95E2F78095822380830895413059F4AE
:1002600020B381E090E002C0880F991F6A95E2F701
:10027000822B80BB089520B381E090E002C0880FFC
:10028000991F6A95E2F78095822380BB0895833495
:1002900009F442C028F4813469F0823421F10895D0
:1002A000863409F46BC08B3409F481C0843409F0BE
:1002B0009AC04BC0413059F422B181E090E002C0B5
:1002C000880F991F6A95E2F7822B82B9089522B1AF
:1002D00081E090E002C0880F991F6A95E2F780954F
:1002E000822382B90895413059F425B181E090E02C
:1002F00002C0880F991F6A95E2F7822B85B908958D
:1003000025B181E090E002C0880F991F6A95E2F75D
:100310008095822385B90895413059F428B181E050
:1003200090E002C0880F991F6A95E2F7822B88B986
:10033000089528B181E090E002C0880F991F6A9566
:10034000E2F78095822388B90895413059F42BB1A2
:1003500081E090E002C0880F991F6A95E2F7822B36
:100360008BB908952BB181E090E002C0880F991FEE
:100370006A95E2F7809582238BB90895413059F44C
:1003800021B381E090E002C0880F991F6A95E2F7DF
:10039000822B81BB089521B381E090E002C0880FD9
:1003A000991F6A95E2F78095822381BB08954130B9
:1003B00069F4E8E0F1E0208181E090E002C0880F7C
:1003C000991F6A95E2F7822B80830895E8E0F1E0B7
:1003D000208181E090E002C0880F991F6A95E2F7C2
:1003E00080958223808308958334C1F128F4813479
:1003F00069F08234F9F083C0863409F457C08B3435
:1004000009F468C0843409F07AC03CC040B181E08E
:1004100090E09C01062E02C0220F331F0A94E2F7DF
:10042000842F90E08223932302C0959587956A9547
:10043000E2F7089543B181E090E09C01062E02C0EE
:10044000220F331F0A94E2F7842F90E08223932334
:1004500002C0959587956A95E2F7089546B181E0C7
:1004600090E09C01062E02C0220F331F0A94E2F78F
:10047000842F90E08223932302C0959587956A95F7
:10048000E2F7089549B181E090E09C01062E02C098
:10049000220F331F0A94E2F7842F90E082239323E4
:1004A00002C0959587956A95E2F708954FB181E06E
:1004B00090E09C01062E02C0220F331F0A94E2F73F
:1004C000842F90E08223932302C0959587956A95A7
:1004D000E2F708954091060181E090E09C01062E2C
:1004E00002C0220F331F0A94E2F7842F90E0822388
:1004F000932302C0959587956A95E2F7089580E069
:100500000895833489F028F4813451F0823451F015
:100510000895863469F08B3469F0843469F406C038
:1005200062B9089565B9089568B908956BB90895D9
:1005300061BB0895609308010895833409F452C0A3
:1005400028F4813469F0823461F10895863409F425
:100550008BC08B3409F4A9C0843409F0CCC063C0CB
:10056000413099F485B78F7E85BF21B181E090E05D
:1005700002C0880F991F6A95E2F7982F90959223F1
:1005800091B992B1892B82B9089522B181E090E0AE
:1005900002C0880F991F6A95E2F78095822382B97D
:1005A0000895413099F485B78F7E85BF24B181E0ED
:1005B00090E002C0880F991F6A95E2F7982F9095F6
:1005C000922394B995B1892B85B9089525B181E01D
:1005D00090E002C0880F991F6A95E2F78095822308
:1005E00085B90895413099F485B78F7E85BF27B1CD
:1005F00081E090E002C0880F991F6A95E2F7982F7A
:100600009095922397B998B1892B88B9089528B10C
:1006100081E090E002C0880F991F6A95E2F780950B
:10062000822388B90895413099F485B78F7E85BFBC
:100630002AB181E090E002C0880F991F6A95E2F725
:10064000982F909592239AB99BB1892B8BB90895D5
:100650002BB181E090E002C0880F991F6A95E2F704
:10066000809582238BB90895413099F485B78F7EA8
:1006700085BF20B381E090E002C0880F991F6A9582
:10068000E2F7982F9095922390BB91B3892B81BB71
:10069000089521B381E090E002C0880F991F6A9508
:1006A000E2F78095822381BB08954130B9F485B784
:1006B0008F7E85BFE7E0F1E0208181E090E002C01D
:1006C000880F991F6A95E2F7982F9095922390834F
:1006D000E8E0F1E09081892B80830895E8E0F1E083
:1006E000208181E090E002C0880F991F6A95E2F7AF
:1006F0008095822380830895DC01F999FECF20E064
:1007000030E00FC0F901EA0FFB1FF2BDE1BD9FB35E
:1007100091609FBBFB01E20FF31F90B590832F5FA9
:100720003F4F2417350770F30895F999FECF92BD16
:1007300081BD8FB381608FBB80B5861739F060BDF6
:100740008FB384608FBB8FB382608FBB0895CF93CC
:10075000DF93DC01EA0120E030E01AC0F999FECF16
:10076000C9018A0F9B1F92BD81BD9FB391609FBB42
:1007700050B5FB01E20FF31F9081591739F090BD7E
:100780009FB394609FBB9FB392609FBB2F5F3F4F0F
:100790002C173D0718F3DF91CF91089541E060E0F9
:1007A0008BE4C8DC41E061E08BE4C4DC41E062E062
:1007B0008BE4C0DC41E063E08BE4BCDC40E064E05F
:1007C0008BE4B8DC40E065E08BE4B4DC40E066E05C
:1007D0008BE4B0DC40E067E08BE4ACDC41E064E05B
:1007E0008BE4ABDE41E065E08BE4A7DE41E066E050
:1007F0008BE4A3DE41E067E08BE49FCE0895FF9297
:100800000F931F93CF93DF93CDB7DEB760970FB6EB
:10081000F894DEBF0FBECDBF80E1E0E0F2E0DE0184
:10082000119601900D928A95E1F7FF24FA9400E069
:1008300036C041E060E08BE42ADD41E061E08BE41A
:1008400026DD41E062E08BE422DD41E063E08BE401
:100850001EDD8FE39CE90197F1F700C0000040E046
:10086000602F8BE414DD10E017C064E0610F8BE4AF
:10087000BBDD811110C0E02FF0E0EE0FFF1FEE0F87
:10088000FF1F81E090E08C0F9D1FE80FF91FE10F23
:10089000F11DF08003C01F5F143038F30F5F043088
:1008A00040F28F2D60960FB6F894DEBF0FBECDBF1D
:1008B000DF91CF911F910F91FF90089541E060E08B
:1008C00083E4E5DC8FE99FE00197F1F700C00000C9
:1008D00040E060E083E4DBDC8FE99FE00197F1F723
:1008E00000C000000895682F81E40BDE40E061E065
:1008F00083E4CDDCE3CF089541E060E081E41ADCDD
:1009000041E061E081E416DC41E062E081E412DC78
:1009100041E063E081E40EDC41E064E081E40ADC74
:1009200041E065E081E406DC41E066E081E402DC70
:1009300041E067E081E4FEDB41E060E083E4FADB74
:1009400041E062E083E4F6DB41E061E083E4F2DB76
:1009500040E062E083E49BDC88E3C5DF81E0C3DF45
:100960008EE0C1DF8FE19EE40197F1F700C0000047
:100970000895682F81E4C5DD41E061E083E487DC10
:100980009DCF0895CF93DF93EC0102C0F2DF219653
:1009900088818111FBCFDF91CF91089581E0A3CFB2
:1009A0000895813019F48FE7860F06C0823019F45C
:1009B0008FEB860F01C080E896CF089541E0BACB57
:1009C000089541E064CC089540E061CC0895CF9350
:1009D000DF93CDB7DEB728970FB6F894DEBF0FBE12
:1009E000CDBF61E086E4EADF60E086E4E7DF84DF34
:1009F000D5DE2DD480E192E0C5DF61E082E0D1DF79
:100A000081E292E0BFDF2FEF39E688E121503040EC
:100A10008040E1F700C00000C1DF8DE292E0B2DF6C
:100A200061E082E0BEDF87E392E0ACDF9FEF29E682
:100A300038E1915020403040E1F700C00000AEDFC7
:100A400082E492E09FDF61E082E0ABDF81E592E04B
:100A500099DF8FEF89838A838B838C8310E026C094
:100A6000CEDE01C08FEF8F3FD9F3E1E0F0E0EC0F75
:100A7000FD1FE10FF11D80837CDF8FEF92E527E002
:100A8000815090402040E1F700C000006CE0610F11
:100A900082E087DF8AE26DDF3FEF80E792E031504E
:100AA00080409040E1F700C000001F5F1430D0F29A
:100AB00044E050E0BE016F5F7F4F82E091E047DE8F
:100AC00061E080E091E031DE69DF8DE592E05ADFA0
:100AD0002FEF34E38CE0215030408040E1F700C03C
:100AE00000005CDF88E692E04DDF61E082E059DFE4
:100AF00087E792E047DF10E026C081DE01C08FEF7C
:100B00008F3FD9F3E1E0F0E0EC0FFD1FE10FF11DA5
:100B100080832FDF9FEF22E537E091502040304067
:100B2000E1F700C000006CE0610F82E03ADF8AE28A
:100B300020DF8FEF90E722E0815090402040E1F7E6
:100B400000C000001F5F1430D0F244E050E0BE014E
:100B50006F5F7F4F86E091E0FADD61E081E091E038
:100B6000E4DD1CDF8DE592E00DDF3FEF84E39CE0E8
:100B7000315080409040E1F700C000000FDF60E09E
:100B80008AE091E0D2DDE12C00E08091D403813055
:100B9000D9F486D31092D6031092D5031092D403C1
:100BA00060E086E411DF61E086E40EDFF7DE83E8D3
:100BB00092E0E8DE2FEF39E688E1215030408040B6
:100BC000E1F700C0000000E0F12C1FEF7EC191E0D2
:100BD000E91220C0E3DE83E992E0D4DE61E082E046
:100BE000E0DE81EA92E0CEDE62E086E4EADE2AEA36
:100BF00036EE86E991E02150304080409040D9F7B0
:100C0000000062E086E4E0DE60E08AE091E08DDDF5
:100C1000F12CE12CC3DE81EB92E0B4DE61E082E0F6
:100C2000C0DE8FEB92E0AEDE02C0E9DD182F1F3F81
:100C3000E1F380ED810F823078F0B0DE8FEC92E04E
:100C4000A1DE2FEF39E688E1215030408040E1F706
:100C500000C000001FEF39C18FEF8D838E838F831B
:100C6000888789838A838B838C83103309F493C0AC
:100C7000113309F425C129C191DE8CED92E082DEA9
:100C800061E082E08EDE87EE92E07CDE9FEF21EE77
:100C900034E0915020403040E1F700C0000010E007
:100CA00026C0ADDD01C08FEF8F3FD9F3E5E0F0E066
:100CB000EC0FFD1FE10FF11D80835BDE8FEF92E5EE
:100CC00027E0815090402040E1F700C000006CE038
:100CD000610F82E066DE8AE24CDE3FEF80E792E061
:100CE000315080409040E1F700C000001F5F143099
:100CF000D0F244E050E0BE016F5F7F4F82E091E0B0
:100D0000FBDC44E0BE016F5F7F4FCE010596CED184
:100D10008130D9F443DE83EF92E034DE61E082E09B
:100D200040DE8CED92E02EDE2FEF34E38CE021509C
:100D300030408040E1F700C0000061E086E441DE21
:100D400093D22CDEF12C81E024C0F39427DE8EEFC9
:100D500092E018DE61E082E024DE89E093E012DEBA
:100D600083E38F1906DE9FEF29E638E1915020409A
:100D70003040E1F700C0000011DE82E08F1540F442
:100D800061E08AE091E0D1DC1FEFEE24E3949DC0A6
:100D9000802F1FEF01C0802F813009F06DCF082F09
:100DA00094C0FCDD85E193E0EDDD61E082E0F9DDFA
:100DB00080E293E0E7DD9FEF21EE34E091502040A8
:100DC0003040E1F700C0000010E026C018DD01C08F
:100DD0008FEF8F3FD9F3E5E0F0E0EC0FFD1FE10F5F
:100DE000F11D8083C6DD8FEF92E527E081509040B2
:100DF0002040E1F700C000006CE0610F82E0D1DD2F
:100E00008AE2B7DD3FEF80E792E0315080409040CA
:100E1000E1F700C000001F5F1430D0F244E050E062
:100E2000BE016F5F7F4F86E091E066DC44E0BE016B
:100E30006F5F7F4FCE01059639D18130D9F4AEDD99
:100E400083EF92E09FDD61E082E0ABDD85E193E03E
:100E500099DD2FEF34E38CE0215030408040E1F702
:100E600000C0000060E086E4ACDDFED197DDF12C2F
:100E700082E024C0F39492DD8CE293E083DD61E0B4
:100E800082E08FDD89E093E07DDD83E38F1971DD02
:100E90009FEF29E638E1915020403040E1F700C053
:100EA00000007CDD82E08F1540F461E08AE091E093
:100EB0003CDC1FEFEE24E39408C0802F1FEF01C03D
:100EC000802F823009F06DCF082F002309F47FCEE8
:100ED000FF24F394CEC08F2D90E0FC013197E730D2
:100EE000F10508F0C6C08827EE58FF4F8F4FE2C1CA
:100EF00055DD87E393E046DD61E082E052DD0130BD
:100F000021F487E493E03EDD05C0023019F487E563
:100F100093E038DD802FE0D0182F9FEF20E732E0FC
:100F2000915020403040E1F700C000008133E1F0F3
:100F30008233F9F0833309F1843311F4023011F173
:100F4000143311F4013019F11F3F21F127DD87E639
:100F500093E018DD8FEF94E32CE081509040204027
:100F6000E1F700C0000016C00F2EF3E0FF2EF02DB9
:100F700011C06894FF24F2F80DC00F2EF5E0FF2E8B
:100F8000F02D08C00F2EF6E0FF2EF02D03C0689460
:100F9000FF24F1F81153143008F46BC08091D4038E
:100FA000882309F4A5CF65C0F9DC83E793E0EADC88
:100FB00061E082E0F6DC87E893E0E4DC802F8CD00F
:100FC000182F3FEF80E792E0315080409040E1F7EA
:100FD00000C000001133A1F01233B9F01333D1F087
:100FE0001F3FD1F0DBDC87E693E0CCDC2FEF34E36E
:100FF0008CE0215030408040E1F700C000000CC080
:101000000F2EF6E0FF2EF02D07C00F2EF7E0FF2E7B
:10101000F02D02C0FF24F3941153143050F180914D
:10102000D403882309F4C0CF24C0602F83E073D099
:10103000FF24F3941EC0602F84E06DD0FF24F3944E
:1010400018C0602F85E067D0FF24F39412C0602F92
:1010500086E061D0023051F4FF24F3940AC0602F7F
:1010600087E059D06894FF24F1F803C06894FF2406
:10107000F1F88091D403813009F02DCF86CD1F92F5
:101080000F920FB60F9211248F939F938091D503E7
:101090009091D60301969093D6038093D5039F91A8
:1010A0008F910F900FBE0F901F901895DC0190E06C
:1010B0000DC0292F30E0FD01E20FF31F5081FB012D
:1010C000E20FF31F2081521305C09F5F941788F32E
:1010D00081E0089580E00895CF93C82F8FEF17C067
:1010E0002091D5033091D603283B3B4010F0C1300E
:1010F00049F02091D5033091D603203D374030F0A0
:10110000C23021F491E09093D40303C078DB8F3F89
:1011100039F3CF910895EF92FF920F931F93CF93DE
:10112000DF93D82FF62EE12C00E010E037DCD5302D
:10113000F9F028F4D33041F0D43081F036C0D63005
:1011400009F1D73049F131C080E993E01BDC0F2E63
:10115000F1E3EF2EF02D01E211E127C089E993E0E0
:1011600011DC0F2EF2E3EF2EF02D02E212E11DC092
:1011700082EA93E007DC0F2EF3E3EF2EF02D03E27B
:1011800013E113C08BEA93E0FDDB0F2EF4E3EF2EA7
:10119000F02D04E214E109C084EB93E0F3DB0F2EA1
:1011A000F5E3EF2EF02D05E215E1812F57D02FEF5B
:1011B00080E792E0215080409040E1F700C00000BD
:1011C0008FEF4CD0813021F48BEB93E0DBDB03C05D
:1011D0008EEB93E0D7DB61E082E0E3DB82EC93E02F
:1011E000D1DB8F2D79DFC82F2FEF80E792E02150E0
:1011F00080409040E1F700C00000C13319F4802F17
:101200002DD016C0C23319F48E2D28D011C0CF3F77
:1012100079F0C03369F0C2DB87E693E0B3DB2FEFF0
:1012200084E39CE0215080409040E1F700C0000042
:10123000C053C33028F08091D403882309F476CFBB
:10124000DF91CF911F910F91FF90EF90089584B19E
:10125000876084B98CB581658CBD08958EBD0DB451
:1012600007FEFDCF8EB508958EE490E0909389003F
:101270008093880084B5826084BD84B58E7F84BDF0
:1012800084B5816084BD84B58D7F84BD84B5846060
:1012900084BD7894EEE6F0E08081826080830895DA
:1012A00084B58E7F84BD84B58D7F84BD84B58B7FEE
:1012B00084BD0895EE0FFF1F881F8BBF0790F69126
:0812C000E02D1994F894FFCF12
:1012C8003132334134353642373839432A302344B2
:1012D80057656C636F6D6520746F20736D617274F0
:1012E80000686F6D652073797374656D004C6F6766
:1012F800696E20666F720066697273742074696D16
:1013080065005365742041646D696E207061737364
:101318000041646D696E20706173733A00506173A7
:10132800732053617665640053657420477565734F
:10133800742050617373004775657374205061732E
:10134800733A0053657373696F6E2054696D656FE6
:101358007574004C6F67696E20626C6F636B6564AF
:101368000077616974203230207365636F6E64732F
:101378000053656C656374206D6F6465203A0030B6
:101388003A41646D696E20313A4775657374005748
:10139800726F6E6720696E7075742E0041646D6996
:1013A8006E206D6F646500456E74657220506173C0
:1013B800733A0052696768742070617373005772DA
:1013C8006F6E672050617373005472696573206C87
:1013D8006566743A004775657374206D6F646500BF
:1013E800456E74657220706173733A0057726F6E40
:1013F80067207061737300313A526F6F6D3120321C
:101408003A526F6F6D3200333A526F6F6D3320343A
:101418003A4D6F72652000333A526F6F6D33203446
:101428003A526F6F6D340057726F6E6720696E7035
:10143800757400313A526F6F6D3420202020323A93
:1014480046414E20202000333A52455455524E0012
:10145800526F6F6D3120533A00526F6F6D322053C7
:101468003A00526F6F6D3320533A00526F6F6D34EC
:1014780020533A0046414E20533A004F4E004F4603
:101488004600312D4F6E20322D4F666620302D528A
:0414980045540000B7
:00000001FF
